:02000004804C2E
:104008005D2A578021295780CD275780000000005E
:1040180000000000709B61800000327E300A327E12
:10402800EC46A0E8F05F4FF000007047B0E8F05FA2
:10403800E546080008BF0120704700BF10F8012BB3
:1040480011F8013B012A28BF9A42F7D0D01A7047CD
:10405800034613F8012B002AFBD1181A01387047C0
:104068004A1E08BF7047C0F02481884240F216817A
:10407800114200F01781B0FA80F3B1FA81F2A2EB95
:104088000303C3F11F0304A202EB03134FF0000262
:104098009F4600BFAFF30080B0EBC17F00BF42EB8B
:1040A800020228BFA0EBC170B0EB817F00BF42EBDA
:1040B800020228BFA0EB8170B0EB417F00BF42EB4A
:1040C800020228BFA0EB4170B0EB017F00BF42EBBA
:1040D800020228BFA0EB0170B0EBC16F00BF42EB3A
:1040E800020228BFA0EBC160B0EB816F00BF42EBBA
:1040F800020228BFA0EB8160B0EB416F00BF42EB2A
:10410800020228BFA0EB4160B0EB016F00BF42EB99
:10411800020228BFA0EB0160B0EBC15F00BF42EB19
:10412800020228BFA0EBC150B0EB815F00BF42EB99
:10413800020228BFA0EB8150B0EB415F00BF42EB09
:10414800020228BFA0EB4150B0EB015F00BF42EB79
:10415800020228BFA0EB0150B0EBC14F00BF42EBF9
:10416800020228BFA0EBC140B0EB814F00BF42EB79
:10417800020228BFA0EB8140B0EB414F00BF42EBE9
:10418800020228BFA0EB4140B0EB014F00BF42EB59
:10419800020228BFA0EB0140B0EBC13F00BF42EBD9
:1041A800020228BFA0EBC130B0EB813F00BF42EB59
:1041B800020228BFA0EB8130B0EB413F00BF42EBC9
:1041C800020228BFA0EB4130B0EB013F00BF42EB39
:1041D800020228BFA0EB0130B0EBC12F00BF42EBB9
:1041E800020228BFA0EBC120B0EB812F00BF42EB39
:1041F800020228BFA0EB8120B0EB412F00BF42EBA9
:10420800020228BFA0EB4120B0EB012F00BF42EB18
:10421800020228BFA0EB0120B0EBC11F00BF42EB98
:10422800020228BFA0EBC110B0EB811F00BF42EB18
:10423800020228BFA0EB8110B0EB411F00BF42EB88
:10424800020228BFA0EB4110B0EB011F00BF42EBF8
:10425800020228BFA0EB0110B0EBC10F00BF42EB78
:10426800020228BFA0EBC100B0EB810F00BF42EBF8
:10427800020228BFA0EB8100B0EB410F00BF42EB68
:10428800020228BFA0EB4100B0EB010F00BF42EBD8
:10429800020228BFA0EB0100104670470CBF0120A6
:1042A80000207047B1FA81F2C2F11F0220FA02F031
:1042B800704708B14FF0FF3000F00EB80029F8D071
:1042C8002DE90340FFF7CCFEBDE8064002FB00F3F2
:1042D800A1EB0301704700BF704700BF81F00041A8
:1042E80002E000BF83F0004330B54FEA41044FEAD3
:1042F800430594EA050F08BF90EA020F1FBF54EA6E
:10430800000C55EA020C7FEA645C7FEA655C00F009
:10431800E2804FEA5454D4EB5555B8BF6D420CDDDA
:104328002C4480EA020281EA030382EA000083EA5D
:10433800010180EA020281EA0303362D88BF30BDFD
:1043480011F0004F4FEA01314FF4801C4CEA113153
:1043580002D0404261EB410113F0004F4FEA0333B2
:104368004CEA133302D0524263EB430394EA050F3D
:1043780000F0A780A4F10104D5F1200E0DDB02FAAC
:104388000EFC22FA05F2801841F1000103FA0EF240
:10439800801843FA05F359410EE0A5F120050EF106
:1043A800200E012A03FA0EFC28BF4CF0020C43FA37
:1043B80005F3C01851EBE37101F0004507D54FF044
:1043C800000EDCF1000C7EEB00006EEB0101B1F594
:1043D800801F1BD3B1F5001F0CD349085FEA3000DA
:1043E8004FEA3C0C04F101044FEA445212F5800FE5
:1043F80080F09A80BCF1004F08BF5FEA500C50F182
:10440800000041EB045141EA050130BD5FEA4C0C64
:10441800404141EB0101013C28BFB1F5801FE9D2C1
:1044280091F0000F04BF01460020B1FA81F308BFE4
:104438002033A3F10B03B3F120020CDA0C3208DDB0
:1044480002F1140CC2F10C0201FA0CF021FA02F18B
:104458000CE002F11402D8BFC2F1200C01FA02F1FB
:1044680020FA0CFCDCBF41EA0C019040E41AA2BF20
:1044780001EB0451294330BD6FEA04041F3C1CDAE8
:104488000C340EDC04F11404C4F1200220FA04F008
:1044980001FA02F340EA030021FA04F345EA0301B2
:1044A80030BDC4F10C04C4F1200220FA02F001FA74
:1044B80004F340EA0300294630BD21FA04F02946F6
:1044C80030BD94F0000F83F4801306BF81F480118F
:1044D8000134013D4EE77FEA645C18BF7FEA655C02
:1044E80029D094EA050F08BF90EA020F05D054EAD4
:1044F800000C04BF1946104630BD91EA030F1EBFD9
:104508000021002030BD5FEA545C05D140004941DC
:1045180028BF41F0004130BD14F580043CBF01F5CF
:10452800801130BD01F0004545F0FE4141F47001B5
:104538004FF0000030BD7FEA645C1ABF1946104690
:104548007FEA655C1CBF0B46024650EA013406BF91
:1045580052EA033591EA030F41F4002130BD00BF50
:1045680090F0000F04BF0021704730B54FF480640D
:1045780004F132044FF000054FF0000150E700BF8E
:1045880090F0000F04BF0021704730B54FF48064ED
:1045980004F1320410F0004548BF40424FF00001DA
:1045A8003EE700BF42004FEAE2014FEA31014FEA1D
:1045B80002701FBF12F07F4393F07F4F81F060516C
:1045C800704732F07F4208BF704793F07F4F04BFB7
:1045D80041F40021704730B54FF4607401F0004594
:1045E80021F000411CE700BF50EA010208BF7047F4
:1045F80030B54FF000050AE050EA010208BF7047E5
:1046080030B511F0004502D5404261EB41014FF44D
:10461800806404F132045FEA915C3FF4D8AE4FF055
:1046280003025FEADC0C18BF03325FEADC0C18BF38
:10463800033202EBDC02C2F1200300FA03FC20FA89
:1046480002F001FA03FE40EA0E0021FA02F11444D6
:10465800BDE600BF70B54FF0FF0C4CF4E06C1CEAEF
:1046680011541DBF1CEA135594EA0C0F95EA0C0F60
:1046780000F0DEF82C4481EA030621EA4C5123EAD3
:104688004C5350EA013518BF52EA033541F4801102
:1046980043F4801338D0A0FB02CE4FF00005E1FBB5
:1046A80002E506F00042E0FB03E54FF00006E1FBFF
:1046B80003569CF0000F18BF4EF0010EA4F1FF0442
:1046C800B6F5007F64F5407404D25FEA4E0E6D4182
:1046D80046EB060642EAC62141EA55514FEAC52093
:1046E80040EA5E504FEACE2EB4F1FD0C88BFBCF50F
:1046F800E06F1ED8BEF1004F08BF5FEA500E50F1C0
:10470800000041EB045170BD06F0004646EA010185
:1047180040EA020081EA0301B4EB5C04C2BFD4EBB7
:104728000C0541EA045170BD41F480114FF0000EB0
:10473800013C00F3AB8014F1360FDEBF002001F01E
:10474800004170BDC4F10004203C35DA0C341BDC98
:1047580004F11404C4F1200500FA05F320FA04F06A
:1047680001FA05F240EA020001F0004221F000419E
:1047780010EBD37021FA04F642EB06015EEA430E11
:1047880008BF20EAD37070BDC4F10C04C4F1200541
:1047980000FA04F320FA05F001FA04F240EA0200F4
:1047A80001F0004110EBD37041F100015EEA430EC5
:1047B80008BF20EAD37070BDC4F1200500FA05F2E5
:1047C8004EEA020E20FA04F301FA05F243EA020364
:1047D80021FA04F001F0004121FA04F220EA020073
:1047E80000EBD3705EEA430E08BF20EAD37070BDB9
:1047F80094F0000F0FD101F00046400041EB010199
:1048080011F4801F08BF013CF7D041EA060195F07A
:10481800000F18BF704703F00046520043EB030334
:1048280013F4801F08BF013DF7D043EA0603704721
:1048380094EA0C0F0CEA135518BF95EA0C0F0CD02C
:1048480050EA410618BF52EA4306D1D181EA030172
:1048580001F000414FF0000070BD50EA410606BF6C
:104868001046194652EA430619D094EA0C0F02D1B1
:1048780050EA013613D195EA0C0F05D152EA0336F6
:104888001CBF104619460AD181EA030101F0004114
:1048980041F0FE4141F470014FF0000070BD41F05D
:1048A800FE4141F4780170BD70B54FF0FF0C4CF437
:1048B800E06C1CEA11541DBF1CEA135594EA0C0F56
:1048C80095EA0C0F00F0A7F8A4EB050481EA030EA3
:1048D80052EA03354FEA013100F088804FEA03338A
:1048E8004FF0805545EA131343EA12634FEA022258
:1048F80045EA111545EA10654FEA00260EF0004119
:104908009D4208BF964244F1FD0404F5407402D26A
:104918005B084FEA3202B61A65EB03055B084FEAFB
:1049280032024FF480104FF4002CB6EB020E75EBF8
:10493800030E22BFB61A754640EA0C005B084FEA20
:104948003202B6EB020E75EB030E22BFB61A75469D
:1049580040EA5C005B084FEA3202B6EB020E75EBE8
:10496800030E22BFB61A754640EA9C005B084FEA60
:104978003202B6EB020E75EB030E22BFB61A75466D
:1049880040EADC0055EA060E18D04FEA051545EA5C
:1049980016754FEA06164FEAC30343EA52734FEA05
:1049A800C2025FEA1C1CC0D111F4801F0BD141EA7E
:1049B80000014FF000004FF0004CB6E711F4801FE3
:1049C80004BF01430020B4F1FD0C88BFBCF5E06FC3
:1049D8003FF6AFAEB5EB030C04BFB6EB020C5FEAD3
:1049E800500C50F1000041EB045170BD0EF0004E28
:1049F8004EEA113114EB5C04C2BFD4EB0C0541EA5A
:104A0800045170BD41F480114FF0000E013C90E656
:104A180045EA060E8DE60CEA135594EA0C0F08BF1A
:104A280095EA0C0F3FF43BAF94EA0C0F0AD150EA19
:104A380001347FF434AF95EA0C0F7FF425AF1046AC
:104A480019462CE795EA0C0F06D152EA03353FF4D4
:104A5800FDAE1046194622E750EA410618BF52EA51
:104A680043067FF4C5AE50EA41047FF40DAF52EA25
:104A780043057FF4EBAE12E74FF0FF3C06E000BFC2
:104A88004FF0010C02E000BF4FF0010C4DF804CDCF
:104A98004FEA410C7FEA6C5C4FEA430C18BF7FEA8F
:104AA8006C5C1BD001B050EA410C0CBF52EA430CBD
:104AB80091EA030F02BF90EA020F0020704710F13D
:104AC800000F91EA030F58BF994208BF90422CBFCC
:104AD800D8176FEAE37040F0010070474FEA410CC5
:104AE8007FEA6C5C02D150EA013C07D14FEA430CE3
:104AF8007FEA6C5CD6D152EA033CD3D05DF8040B54
:104B0800704700BF8446104662468C461946634685
:104B180000E000BF01B5FFF7B7FF002848BF10F15C
:104B2800000F01BD4DF808EDFFF7F4FF0CBF0120A1
:104B380000205DF808FB00BF4DF808EDFFF7EAFF1D
:104B480034BF012000205DF808FB00BF4DF808EDD8
:104B5800FFF7E0FF94BF012000205DF808FB00BFCD
:104B68004DF808EDFFF7CEFF94BF012000205DF857
:104B780008FB00BF4DF808EDFFF7C4FF34BF012064
:104B880000205DF808FB00BF4FEA410C7FEA6C5C2F
:104B980002D150EA013C0AD14FEA430C7FEA6C5C2F
:104BA80002D152EA033C02D14FF0000070474FF0A7
:104BB800010070474FEA410212F5001215D211D5D3
:104BC8006FF47873B3EB625212D94FEAC12343F002
:104BD800004343EA505311F0004F23FA02F018BF84
:104BE800404270474FF00000704750EA013005D14D
:104BF80011F0004008BF6FF0004070474FF0000010
:104C0800704700BF4A0011D212F5001211D20DD51B
:104C18006FF47873B3EB62520ED44FEAC12343F0BA
:104C2800004343EA505323FA02F070474FF0000064
:104C3800704750EA013002D14FF0FF3070474FF013
:104C4800000070474FEA4102B2F1E04324BFB3F5D8
:104C5800001CDCF1FE5C0DD901F0004C4FEAC002EB
:104C68004CEA5070B2F1004F40EB830008BF20F0CF
:104C78000100704711F0804F21D113F13872BCBF89
:104C880001F00040704741F480114FEA5252C2F1DE
:104C98001802C2F1200C10FA0CF320FA02F018BF27
:104CA80040F001004FEAC1234FEAD32303FA0CFC7A
:104CB80040EA0C0023FA02F34FEA4303CCE77FEA09
:104CC800625307D150EA01331EBF4FF0FE4040F453
:104CD8004000704701F0004040F0FE4040F4000002
:104CE800704700BF80F0004002E000BF81F0004143
:104CF80042001FBF5FEA410392EA030F7FEA226C7A
:104D08007FEA236C6AD04FEA1262D2EB1363C1BF09
:104D1800D218414048404140B8BF5B42192B88BF78
:104D2800704710F0004F40F4000020F07F4018BF9B
:104D3800404211F0004F41F4000121F07F4118BFBB
:104D4800494292EA030F3FD0A2F1010241FA03FC63
:104D580010EB0C00C3F1200301FA03F100F000434B
:104D680002D5494260EB4000B0F5000F13D3B0F113
:104D7800807F06D340084FEA310102F10102FE2A82
:104D880051D2B1F1004F40EBC25008BF20F00100F2
:104D980040EA03007047490040EB0000013A28BF91
:104DA800B0F5000FEDD2B0FA80FCACF1080CB2EB14
:104DB8000C0200FA0CF0AABF00EBC2505242184392
:104DC800BCBFD0401843704792F0000F81F4000137
:104DD80006BF80F400000132013BB5E74FEA41030A
:104DE8007FEA226C18BF7FEA236C21D092EA030F76
:104DF80004D092F0000F08BF0846704790EA010FF0
:104E08001CBF0020704712F07F4F04D1400028BF1C
:104E180040F00040704712F100723CBF00F50000FE
:104E2800704700F0004343F0FE4040F40000704734
:104E38007FEA226216BF08467FEA236301464202E0
:104E480006BF5FEA412390EA010F40F480007047F3
:104E58004FF0000304E000BF10F0004348BF404299
:104E68005FEA000C08BF704743F0964301464FF0D5
:104E780000001CE050EA010208BF70474FF0000331
:104E88000AE000BF50EA010208BF704711F0004372
:104E980002D5404261EB41015FEA010C02BF844642
:104EA8000146002043F0B64308BFA3F18053A3F5A1
:104EB8000003BCFA8CF2083AA3EBC25310DB01FAE8
:104EC80002FC634400FA02FCC2F12002BCF1004F6C
:104ED80020FA02F243EB020008BF20F001007047FD
:104EE80002F1200201FA02FCC2F1200250EA4C0051
:104EF80021FA02F243EB020008BF20EADC70704797
:104F08004FF0FF0C1CEAD0521EBF1CEAD15392EAA4
:104F18000C0F93EA0C0F6FD01A4480EA010C400280
:104F280018BF5FEA41211ED04FF0006343EA5010DA
:104F380043EA5111A0FB01310CF00040B1F5000F1C
:104F48003EBF490041EAD3715B0040EA010062F1CB
:104F58007F02FD2A1DD8B3F1004F40EBC25008BFB5
:104F680020F00100704790F0000F0CF0004C08BFD3
:104F780049024CEA502040EA51207F3AC2BFD2F1A0
:104F8800FF0340EAC250704740F400004FF00003AE
:104F9800013A5DDC12F1190FDCBF00F000407047E8
:104FA800C2F10002410021FA02F1C2F1200200FA26
:104FB80002FC5FEA310040F1000053EA4C0308BFED
:104FC80020EADC70704792F0000F00F0004C02BF3E
:104FD800400010F4000F013AF9D040EA0C0093F0B9
:104FE800000F01F0004C02BF490011F4000F013B13
:104FF800F9D041EA0C018FE70CEAD15392EA0C0F81
:1050080018BF93EA0C0F0AD030F0004C18BF31F0EB
:10501800004CD8D180EA010000F00040704790F0C1
:10502800000F17BF90F0004F084691F0000F91F065
:10503800004F14D092EA0C0F01D142020FD193EA2B
:105048000C0F03D14B0218BF084608D180EA0100B3
:1050580000F0004040F0FE4040F40000704740F08F
:10506800FE4040F4400070474FF0FF0C1CEAD0525D
:105078001EBF1CEAD15392EA0C0F93EA0C0F69D0B9
:10508800A2EB030280EA010C49024FEA402037D024
:105098004FF0805343EA111143EA10130CF000401B
:1050A8008B4238BF5B0042F17D024FF4000C8B420B
:1050B80024BF5B1A40EA0C00B3EB510F24BFA3EBEB
:1050C800510340EA5C00B3EB910F24BFA3EB9103BB
:1050D80040EA9C00B3EBD10F24BFA3EBD10340EA15
:1050E800DC001B0118BF5FEA1C1CE0D1FD2A3FF65B
:1050F80050AF8B4240EBC25008BF20F00100704710
:105108000CF0004C4CEA50207F32C2BFD2F1FF03B2
:1051180040EAC250704740F400004FF00003013AE3
:1051280037E792F0000F00F0004C02BF400010F487
:10513800000F013AF9D040EA0C0093F0000F01F09B
:10514800004C02BF490011F4000F013BF9D041EABD
:105158000C0195E70CEAD15392EA0C0F08D14202F0
:105168007FF47DAF93EA0C0F7FF470AF084676E7C3
:1051780093EA0C0F04D14B023FF44CAF08466EE79C
:1051880030F0004C18BF31F0004CCAD130F000426A
:105198007FF45CAF31F000437FF43CAF5FE700BFC2
:1051A8004FF0FF3C06E000BF4FF0010C02E000BFEB
:1051B8004FF0010C4DF804CD4FEA40024FEA41038D
:1051C8007FEA226C18BF7FEA236C11D001B052EA43
:1051D800530C18BF90EA010F58BFB2EB030088BF09
:1051E800C81738BF6FEAE17018BF40F00100704778
:1051F8007FEA226C02D15FEA402C05D17FEA236C5A
:10520800E4D15FEA412CE1D05DF8040B704700BFA0
:10521800844608466146FFE70FB5FFF7C9FF002837
:1052280048BF10F1000F0FBD4DF808EDFFF7F4FF70
:105238000CBF012000205DF808FB00BF4DF808ED09
:10524800FFF7EAFF34BF012000205DF808FB00BF2C
:105258004DF808EDFFF7E0FF94BF012000205DF84E
:1052680008FB00BF4DF808EDFFF7D2FF94BF0120FF
:1052780000205DF808FB00BF4DF808EDFFF7C8FFF8
:1052880034BF012000205DF808FB00BF4FEA400250
:10529800B2F1FE4F0FD34FF09E03B3EB12620DD95C
:1052A8004FEA002343F0004310F0004F23FA02F0C6
:1052B80018BF404270474FF00000704712F1610F6D
:1052C80001D1420205D110F0004008BF6FF0004044
:1052D80070474FF00000704742000ED2B2F1FE4F07
:1052E8000BD34FF09E03B3EB126209D44FEA0023AD
:1052F80043F0004323FA02F070474FF00000704774
:1053080012F1610F01D1420202D14FF0FF30704714
:105318004FF00000704700BF7BB972B90029BEBFCB
:1053280000204FF0004106E008BF00281CBF6FF0C6
:1053380000414FF0FF30FEF7CFBFADF1080C6DE92B
:1053480004CE002909DB002B1ADB00F0B9F8DDF8E0
:1053580004E0DDE9022304B07047404261EB4101FB
:10536800002B1BDB00F0ACF8DDF804E0DDE90223DC
:1053780004B0404261EB4101524263EB4303704782
:10538800524263EB430300F09BF8DDF804E0DDE9EB
:10539800022304B0404261EB41017047524263EB83
:1053A800430300F08DF8DDF804E0DDE9022304B0E2
:1053B800524263EB4303704753B94AB9002908BF07
:1053C80000281CBF4FF0FF314FF0FF30FEF784BFBD
:1053D800ADF1080C6DE904CE00F072F8DDF804E0D8
:1053E800DDE9022304B0704710B500210446FFF739
:1053F80025FF20B92046BDE8104000F023B804F18D
:10540800004000F01FF8404261EB410110BD00BFB1
:1054180038B505460C462846214600220023FFF7EA
:105428008BFB28B928462146BDE8384000F02AB849
:10543800284604F1004100F025F8404261EB4101A3
:1054480038BD00BFD0B5FFF7ADF800220023C3F682
:10545800F05306460F46FFF7FDF8FFF7D3FB044667
:10546800FFF77EF800220023C4F2F013FFF7F2F8EA
:1054780002460B4630463946FEF734FFFFF7C2FBBB
:105488002146D0BDD0B500220023C3F6F05306460E
:105498000F46FFF7DFF8FFF7B5FB0446FFF760F8A4
:1054A80000220023C4F2F013FFF7D4F802460B469B
:1054B80030463946FEF716FFFFF7A4FB2146D0BD5C
:1054C8002DE9F04390420D4675EB03010446079F12
:1054D8003CBF0020014666D3B3FA83F0002B6BD0A3
:1054E800B5FA85F1002D63D0461AA6F1200CC6F155
:1054F800200EB34002FA0CF102FA06F80B4322FA26
:105508000EF2444543EA020375EB03023CBF002058
:1055180001460AD30120B4EB080400FA0CF165EB4C
:10552800030520FA0EF21143B040E6B34FEA5802E1
:10553800B04642EAC3725B080AE0A41A65EB0305A9
:1055480024196D41013445F10005B8F1010808D06E
:10555800944275EB0309F0D224196D41B8F10108A2
:10556800F6D110EB040805FA0EFE24FA06F441EB16
:10557800050125FA0CFC44EA0E0444EA0C04F54043
:10558800A6F1200CC6F1200205FA06F304FA0CFC79
:1055980024FA02F243EA0C0304FA06F01343B8EBC8
:1055A800000061EB03010FB1C7E90045BDE8F083D6
:1055B800B4FA84F1203197E7B2FA82F0B5FA85F1AE
:1055C8002030002D90D1F3E70346500C10B5144657
:1055D800C2F34F0221B1E10702D40C4818F05CFE77
:1055E800904206D198420FD009490246094817F05F
:1055F800F1FE984204D90849C21A064817F0EAFE93
:105608009A4201D20549F1E710BD00BFFC195A8042
:10561800241A5A80546A5A805D1A5A808F1A5A80FE
:105628002DE9F74F00240646DDE90CA78B46154601
:10563800A0460193A146019B9C4204D1B14544D2A6
:10564800264818F029FEB44210D2BAF80220920572
:10565800F6D45BF8240009F101099AF80220012A1E
:1056680024D10DF021FD07F8240017E0BAF8001046
:1056780000222846C90041F0020109F02DFE88B930
:10568800BAF80220D30505D51549BAF800201548FF
:1056980017F0A0FEDAF8042047F8242001340AF1B4
:1056A800080AC8E7406808F10108D6E7022A04D1C9
:1056B8000DF06EFB47F82400F0E7032AFAD00A4BF6
:1056C80070210A4A0A4847F0F1FB2B68B8EBD30F60
:1056D80001D20848B5E703B0BDE8F08F2C1B5A800B
:1056E800BE1A5A80546A5A80D51A5A80AD1B5A80FD
:1056F800091B5A804D1B5A8070B5044686B0154662
:1057080002EB80021E4603A809F0BDFD0B9B019326
:1057180003AA0A9B2946009320463346FFF780FFD9
:1057280006B070BD014808B518F0E4FD6B1B5A803F
:1057380010B501610446880009F05CFD606110BD88
:1057480010B5044611B1C06809F07CFD6069BDE878
:10575800104009F077BD0000012938B504460D4610
:105768000ADC02694FF0FF3140699200D0F0D5FBA6
:1057780025600023636038BD406809F03BFD63681D
:10578800A360E0600028F3D1024B3821024A0348A5
:1057980047F08CFBBE1B5A80D61C5A80D41B5A80FB
:1057A80008B5426803460068114402280CD198687D
:1057B800884205D2054B4421054A064847F076FB46
:1057C800D8681044596008BD0020FBE7F61B5A80D2
:1057D800B31C5A80D41B5A8010B503698B4205D874
:1057E8000E4B4C210E4A0F4847F060FB0468426993
:1057F800012C52F8213009DC013303D00A4B4F2128
:10580800074AF0E7436842F8213010BD42689A42DF
:10581800FBD0064B5321024AE5E700BF2C1C5A80F7
:105828009A1C5A80D41B5A80471C5A806E1C5A8076
:1058380038B50C461546FFF7B3FF10B10444A04233
:1058480000D138BD00F8015B2D0AF8E708B50369F7
:105858008B4205D8044B7A21044A054847F026FBB9
:10586800436953F8210008BDED1C5A80721D5A8007
:105878000D1D5A808369C36100238361704710B589
:105888000C460221FFF78CFF10B10470240A447003
:1058980010BD10B54FF484710446FFF7F0FF2046A1
:1058A8004FF21D01BDE81040FFF7E9BF10B50C46E7
:1058B8000321FFF775FF20B10470230A240C4370FD
:1058C800847010BD130403F47F0343EA011102F44A
:1058D8007062114341F4204141F00201FFF7E6BF35
:1058E80038B5C3690D461649044601EA032141F05B
:1058F8000601FFF7DBFF01212046FFF751FFE169B1
:1059080020468900FFF74CFFAB00133323F00F0349
:1059180003F1200161620029B8BF03F12701094B97
:1059280003EA412141F49B7120622046FFF7BEFF44
:10593800204640F20911BDE83840FFF7A0BF00BF7C
:10594800C0FFFF0000F0FF0010B50446FFF77EFF20
:105958006168411A0548043900EA8111204641F07E
:105968000601BDE81040FFF7A1BF00BFC0FFFF0060
:10597800F8B50E46194605461746FFF767FF6B68E8
:10598800C31A1C1F2B68022B0AD124F4FF6323F0CF
:1059980007032BB113F5006F02D00848AEF0ACFD39
:1059A800074B284603EA043343EA072242EA8611F2
:1059B80041F01601BDE8F840FFF778BF311D5A8065
:1059C80000F0FF002DE9F0410E460546069998467D
:1059D8001746FFF73BFF2B686C68022BA0EB04040B
:1059E800A4F1040407D134F07F0304D0803302D03B
:1059F8000948AEF081FD2846240404F47F0444EAF3
:105A0800081343EA072242EA063141F00701BDE8DC
:105A1800F041FFF74BBF00BF521D5A802DE9F041FE
:105A2800069C120288461F46064695B245F48051E8
:105A380041F00C012401FFF722FF304644EA083107
:105A480041EA072141F4803141F00701FFF72EFFB9
:105A5800304645F00C01BDE8F041FFF710BF0000EB
:105A6800F8B5C3680446056A17460E4EED1A8369F1
:105A780005EB83054368033323F00303EB1A06EAB7
:105A8800831343EA011141F00101FFF70FFF236A75
:105A980013B1A26943F82270A36928460133A361B0
:105AA800F8BD00BF00FFFF0070B4134622F4FF6486
:105AB800054624F007040E4614B114F5006F05D10D
:105AC800314628461A4670BCFFF7FCBE70BCFFF78B
:105AD800C7BF090401F47F0141EA021141F4C24140
:105AE80041F00201FFF7E2BE120402F47F0242EA2B
:105AF800011141F4045141F00201FFF7D7BE9200B1
:105B080038B5054632F07F030C4601D080330DD1FD
:105B18002846120402F47F0242EA041141F441418A
:105B2800BDE8384041F00201FFF7C0BEFFF7CAFEEA
:105B38002846A1B20C0244EA013101F47F41BDE8D4
:105B4800384041F01A01FFF79ABE70B50D4611466C
:105B58000446FFF77BFE2946ADB26268821A2046EA
:105B6800063AFFF7AFFE66682046710101F0400172
:105B780041F00501FFF79AFE2046C6F1050101F044
:105B88000301FFF70DFE2046290241EA053101F421
:105B98007F41BDE8704041F00A01FFF770BE0F2950
:105BA80010B504460DD8090301F4704141F4F161C0
:105BB800FFF765FE20464FF40E61BDE81040FFF781
:105BC80075BE090401F47F0141F41E5141F0020140
:105BD800FFF76CFEEEE700002DE9F04F1E468BB094
:105BE80003680F46039204464268808999680293C5
:105BF80001908B180133636000238A5C99469A46AA
:105C080002F003059846120622D4002104F110037D
:105C180004F11400A360019BE1819B001A460493E0
:105C2800D0F07BF9019BBD4208F00402A3EB050309
:105C38000593A3EB0A0303F1040B04EB8B0B80F031
:105C48009980F2B93B462A469C499D4817F0C2FB09
:105C58006268511C61601278C2F38011994048EA69
:105C6800010802F0040199400D43C2F3C0019940B4
:105C78004AEA010A02F00101994049EA010901339F
:105C8800C1E706EB85010693781B14F069F9069BBA
:105C9800ABF1040B04EB830318612B46019A3146E0
:105CA80006EB8303043204EB82028B4240F08B80C4
:105CB800039A08F0080308F002080693134300F05B
:105CC800D880B8F1000F00F0838010460EF050FE27
:105CD800CBF800000346029A06EB87060027D2F8A5
:105CE8000CB005EB0A020792019A013A0892039A4E
:105CF80097426FD1059A6FF003014E4609F10303ED
:105D080001FB09F1053201EB83014FEA830C029B89
:105D1800970004EB820210461944002E40F082805E
:105D2800049BACF10C0C624414332344934200F2FC
:105D38008180043F27440BEB850509F10409B2452E
:105D480040F081800023062765681A46194615F831
:105D5800010B00F0010607FB03FC9E403243C0F331
:105D68004506000606FA0CF641EA060140F1918064
:105D78000133ECE72AB104EB8303524AABF1040B7D
:105D88001A61039A08F00803134312D1A5EB09021C
:105D9800BA4216D8019AC7F104033846A9EB05019F
:105DA8001344029A04EB830302EB8101103185420C
:105DB80001D13B4672E751F82020013043F804290D
:105DC800F5E73B4640E751F8040B42F804096CE755
:105DD800434680E7316800220798904205D8B8F119
:105DE800000F18D1CA0838490BE05BF82200884236
:105DF8000FD10898821A04EB8202506920B1CA08B0
:105E080032492F4817F0E6FA7168516101370836B0
:105E18006DE70132E0E77268184609930EF0FDFD60
:105E2800099BF3E7036813B951F826300360013E74
:105E3800043072E752F8041B00297FF477AF244935
:105E48009A1A9210DDE73A685AB9069B296863B135
:105E5800029B53F82900043009F03EFA28B1436840
:105E68003B600136043F043569E72A681949D208BE
:105E7800C7E7BAF1000F02D0174818F00DFAB8F1C9
:105E8800000F3FF45FAF50460EF072FDCBF80000F4
:105E980058E7019B0D4405EB02085E1E454503D1FA
:105EA80065600BB0BDE8F08F15F8017BF71B04EBBC
:105EB800870778690DF08EFE7861EFE7241A5A801B
:105EC800546A5A8038875A80B01D5A80811D5A807A
:105ED800D11D5A80031E5A80331E5A8030B503786C
:105EE800054618094FF469744000044104F00300A2
:105EF800012803D1EB1C5B1B0B6030BD13F09E0F18
:105F08000CBF01240024022805F1010306D11AB1AF
:105F180013F9012B002AFBDB2344ECE7032808BF15
:105F2800EB1CF9E7402808B531D02AD800F0FD006D
:105F38003C2826D1532920D8412922D94239112970
:105F48001FD8DFE801F08A1E1E1E1E1E87151E1EA2
:105F5800151E1E1515211E150F2912D8DFE801F090
:105F68007D11141108117A08111108111111111459
:105F78000121042002B1116008BD6239CBB20F2B98
:105F8800EAD9374817F0CCFF01210820F2E7532956
:105F980032D8412903D80129F3D10846EAE7423922
:105FA8001129EED801A353F821F000BF63604C809B
:105FB8008B5F4C808B5F4C808B5F4C808B5F4C8001
:105FC8008B5F4C8059604C80FD5F4C808B5F4C80B0
:105FD8008B5F4C80FD5F4C808B5F4C808B5F4C806F
:105FE800FD5F4C80FD5F4C8055604C808B5F4C8022
:105FF800FD5F4C800421D0E76239CBB20F2BC0D8AB
:106008000F29BED801A353F821F000BF63604C806C
:106018008B5F4C8055604C808B5F4C80FD5F4C8063
:106028008B5F4C8059604C80FD5F4C808B5F4C804F
:106038008B5F4C80FD5F4C808B5F4C808B5F4C800E
:106048008B5F4C808B5F4C8055604C800821A4E7A7
:106058000221A2E7012102208CE701219DE700BF70
:106068005A1E5A80512808B52CD8412803D801282F
:1060780057D0002051E042380F28FAD801A353F82E
:1060880020F000BF2B614C807B604C807B604C8093
:106098007B604C807B604C807B604C8035614C80A1
:1060A8003B614C807B604C807B604C803B614C80CA
:1060B8007B604C807B604C8081614C8087614C8028
:1060C80057614C806238C3B20F2BD2D80F28D0D872
:1060D80001A353F820F000BF21614C807B604C8005
:1060E80077614C807B604C8067614C807B604C8022
:1060F8002F614C8087614C807B604C807B604C803A
:1061080087614C807B604C807B604C807B604C80DE
:106118007B604C8047614C808856400040F001000D
:106128002CE0885CF9E731F91200F6E731F8120043
:10613800F3E7BDE8084051F8220010F019B901EB67
:10614800C201BDE80840D1E9000110F07BB801EBBD
:10615800C201BDE80840D1E9000110F08EB851F83D
:106168002200FEF71FFABDE808400EF0FDBF01EB64
:10617800C201D1E90001F6E751F8220008BDBDE8E7
:10618800084051F8220010F06DB800BF70B5044601
:10619800084652B94FF0FF35621E134410B193F907
:1061A8000010C8170146002209E00125F6E7090298
:1061B8001E7841EA10612B4446EA00200132A242CF
:1061C800F5D170BD2DE9F341054617461C6801AAB3
:1061D8000E469846FFF7A6FE402D07D1019AE41B0C
:1061E8003C25531E1C44524214403C442318C8F812
:1061F80000302346A5F13E04624262415A2E94BF04
:1062080000210121FFF7C2FF4F2E044602D102B040
:10621800BDE8F081532E06D1FDF71AFF014620464E
:1062280012F08AFAF3E7662E04D1FEF7BBF90EF0F6
:106238009BFFECE7642EFAD05A2E0ED910F180435A
:1062480041F10002B3F1004F72F1000302D210F0E5
:1062580009F8DCE70FF0F6FFD9E7B0F1804F71F1EC
:10626800000302D210F084F8D1E710F006F8CEE768
:1062780013B501930446104629B9224601A9CFF067
:1062880025FE02B010BD01AB23441444A042F8D04F
:1062980013F8012D00F8012BF8E700002DE9FF475E
:1062A800DDF830801446064601AA89469A46D8F891
:1062B8000050FFF737FE402E074608D1019BA5EB9B
:1062C8000A053C265A1E15445B421D405544EB19ED
:1062D800A6F13E02C8F80030D2F1000848EB0208E7
:1062E800B9F1640F16D0B9F1660F0CD0B9F14F0FA0
:1062F80029D13846042F23462A46414628BF042080
:10630800FFF7B6FF2BE020460CF0BAFDFEF79AFC2B
:106318000446EEE720460CF0B3FD2A4604AB03EB37
:1063280088030435CDE90201414653F8083C0420AE
:10633800FFF79EFF3E3E18BF012604AB03EB86061F
:1063480056F8084CD5E7A3070CD122680F4B9A42A0
:1063580008D12B463A46414620460FF00BFF04B0C1
:10636800BDE8F08720460CF013FD042F0446C0D981
:106378003A460028B4BFFF2100212846CFF0CDFDC2
:106388003E2E04BF3B1FED18B3E700BFE0725A80F2
:1063980070B505460E461446712D184607D8612D6E
:1063A80006D8012D50D0423DEBB20F2B26D970BD37
:1063B800623D0F2DFBD801A353F825F051644C80A2
:1063C800B7634C8073644C80B7634C8069644C80BD
:1063D800B7634C8055644C8081644C80B7634C80B3
:1063E800B7634C8081644C80B7634C80B7634C8042
:1063F800B7634C80B7634C805B644C800F2DD6D854
:1064080001A353F825F000BF51644C80B7634C805A
:10641800B7634C80B7634C80B7634C80B7634C80DC
:1064280055644C8081644C80B7634C80B7634C8062
:1064380081644C80B7634C80B7634C80B7634C80F1
:1064480081644C805B644C803055B0E726F81400BA
:10645800ADE706EBC40346F83400C2175A60A6E756
:10646800FEF7FAFC46F82400A1E701EBC204FEF7A8
:1064780087F8C4E900019AE746F8240097E700BFC7
:1064880064282DE9F04106460F4615461C460FD0F4
:10649800662804D04F2813D147F8253006E018465F
:1064A8000CF0EEFCFEF7CEFB47F82500BDE8F081C6
:1064B800184601EBC2050CF0E3FCC5E90001F5E75D
:1064C80013F0030811D11A680D4B9A420DD14246B8
:1064D80001464020FFF726FD414600FB05730246B2
:1064E8002046BDE8F0410FF045BE20460CF050FCB8
:1064F8002A46394603463046BDE8F041FFF748BF13
:10650800E0725A8073B50C4601A9206812F0E0FBCE
:106518000546606812F0AAFB2946019A002308F094
:1065280037FE0546A06812F0A1FB512808D040F6B6
:10653800ED33984215D0502815D00C4817F0F0FCD0
:106548000126082008F056FE094B31460360002357
:1065580004461A46284617F04AF86060204602B0FA
:1065680070BD0026EDE70226EBE700BF671E5A80E4
:10657800A81E5A8030B515469FB00C46039046F0C9
:10658800D3F9C368019346F0CFF98368029346F0C4
:10659800CBF9C46046F0C8F9039B85605B689A072D
:1065A80004D11968134A914208BF5C6005A80CF031
:1065B8001AFB07A8FDF734FD50B146F0B5F9019B69
:1065C800C36046F0B1F9029B836006980CF01BFB90
:1065D800039B586817F006F804460CF00DFB46F0CC
:1065E800A3F9019BC36046F09FF9029B8360204694
:1065F8001FB030BD2C6E5A802DE9FF4180460E46F3
:10660800144646F091F9C76846F08EF9B8F1010FC3
:1066180085681AD97368062B07D0990711D11968AC
:106628001D4A91420DD11D461F46B8F1020F0CD0EC
:10663800B368062B09D09A0703D11968164A914204
:1066480002D0002017F028FE1D46306883070AD1C3
:106658000268124B9A4206D12A46394604B0BDE870
:10666800F041FFF787BF012201A90CF00DFE5CB9CC
:106678000198012408F09AFD2B463A46214616F067
:10668800B6FF04B0BDE8F081DDE901120023E02087
:1066980008F07EFDF0E700BF88625A80A81E5A8085
:1066A8000222FFF7A9BF0122FFF7A6BF0022FFF7CA
:1066B800A3BF00002DE9FF4738B9594959480AF0E6
:1066C8004FFC062004B0BDE8F0870D6844F61A2395
:1066D8009D425ED100210024534F084610F088FAED
:1066E8007E6801900546B44218D3019F4F4E357815
:1066F800FDB94F4A01A9DFF82C81012010F0DAF822
:10670800019803AADFF82C9102A910F087FA029BDE
:1067180003339F08AF421BD14749CFE7BB6853F803
:10672800341021B1042902D0284610F00CF80134A5
:10673800D9E73046FDF78CFC0446C11E30460134CB
:1067480011F0FAFF2644014638460FF0FCFFCEE769
:106758002E46039B53F826003E4412F09FFA01464A
:1067680040460AF0FDFB029B9E420CD2C0F1120487
:10677800002C06DD013CECD3494640460AF0F0FB0C
:10678800F8E71234F4E72D4940460AF0E9FB0135F1
:10679800C0E728460CF04AFA2949044621480AF07D
:1067A800DFFB002128460CF079FA26491D48E288CB
:1067B8000AF092FF244B9C4229D16C68DFF88C8048
:1067C8000434184E0025DFF8889063689D42BFF4B2
:1067D80078AFA36803EBC50253F83570AFB14146F3
:1067E8003046D2F804A00AF0BBFB002138460CF072
:1067F80055FA494630460AF0B3FB002150460CF0E2
:106808004DFA0E4930460AF0ABFB0135DDE7114B76
:106818009C4208BF2C46A46B002CCFD151E700BF87
:10682800341F5A80D04F5A8048765A80649D5D80C4
:1068380070625A80F4955A80E41E5A80B865608068
:10684800081F5A80101F5A801C785A80FAD05B8023
:10685800201F5A80308D5A8010B5044607F06AFC14
:1068680020B92046BDE8104020F08ABC10BD10B504
:1068780004461AF0ACFAFFF7EFFF02280CD0616863
:106888006D22204602391AF0C8FA20461AF09FFAFB
:10689800FFF7E2FF022801D1022010BD0020FCE72B
:1068A80010B504461AF093FAFFF7D6FF012808D06E
:1068B800044920461AF0A4FA2046BDE81040FFF724
:1068C800D6BF10BD71225C8010B504469EB010463C
:1068D800019116F071F9BA21C200204642F0020275
:1068E80016F0CEFF646846F01FF8C368039346F0BD
:1068F8001BF88368049346F017F8C46046F014F850
:10690800846005A80CF06FF907A8FDF789FB02461B
:1069180088B90146019804F0CFF916F063FE0CF02F
:106928006BF9039C46F000F8C460049C45F0FCFF3A
:1069380084601EB010BD039C45F0F6FFC460049C43
:1069480045F0F2FF846006980CF05DF973B50546D2
:1069580008460E461AF03BFA01AA7168044607F089
:106968000BFC022806D1019922462846FFF7ACFF06
:1069780002B070BD73682046234413F8033C6D2BA6
:1069880004D116F01FF822460146EEE708F00EFC87
:10699800BA21026804462846D20042F0020216F0E4
:1069A8006FFF6B681A460121204616F020FEDFE7CC
:1069B80003282DE9F04FADF50B7D0D6800AF09D91F
:1069C800CB6804287B6020D00E69761005D500209E
:1069D80017F0A6FA062300267B60284607F108016F
:1069E80012F076F90446002E70D045F09DFFBA21CA
:1069F800013EC0680DF0A2FF054640B9B04B40F219
:106A08001B11B04AB04846F051FA0026E5E7C30822
:106A1800152B06D145F088FFAA21C0680DF08EFF1E
:106A2800054645F081FF002240F25A61C0680430F3
:106A380008F052FC07F128018046284612F048F970
:106A4800BA6A01460244B8F1000F05D1914203D257
:106A580012F8013D2E2BF9D1013E07D2914208D1FF
:106A68009A48B5E712F8013D2E2BF5D09142F9D39B
:106A7800F2E7D7F80880551AB8F1000F46D008F1A8
:106A880001062E442A46F31D23F00703ADEB030D40
:106A98006B46E94618464FEAD30ACFF017FAB8F121
:106AA800000F08D02E23681C4246214605F83A30CC
:106AB8004844CFF00BFA3146484615F0E9FFC500C7
:106AC80016F08EF8BE6045F002050446BB68002B40
:106AD8003FF47DAF284612F0C9F810F0A7FA064631
:106AE800B0B12E212046D0F0E6F848B17B68062BDD
:106AF80006D1011B204615F0CBFF10F097FA064689
:106B0800304607F50B77BD46BDE8F08F2E46B9E74E
:106B18004FF4007107F12802B34607F118001AF084
:106B2800F7F84FF00108B246BB68434504D27B68CA
:106B3800062B18BF5E46E3E704D014F808302E2B66
:106B480040F0BA804146204615F0A2FFFD69814613
:106B5800002D6FD15E4807F1100207F10C0110F00B
:106B68005DF8FB686BB307F110023A60002307F188
:106B78001401FB613B681B6853F8250012F0A8F864
:106B88007A69014642B107F118001AF07FF82F21FF
:106B980007F118001AF031F94246214607F11800AA
:106BA8001AF074F807F11800FFF77AFE0346A8B93F
:106BB800FB6801359D42D9D346494A46464816F0F6
:106BC80009FC4246214607F118001AF05FF807F160
:106BD8001800FFF765FE03460028EDD03B604846E5
:106BE80010F024FA0546002852D1484610F0A8F9BA
:106BF800BA683B684245054626D17A680E2A23D1F1
:106C0800012B23D0AA22BA2140680DF006FF2A469C
:106C18003248AA210DF001FF6868AA214FEAC9028B
:106C280042F002020DF0F9FE284607F11801FFF7BD
:106C38008DFE2DE02F2107F118001AF0DEF8A8EBE1
:106C48000A0204EB0A01BEE7012BEDD1D7E90710D0
:106C580011F072FDCB210246284616F011FE2F21B5
:106C6800D7F81C9007F118001AF0C7F81C4907F16B
:106C780018001AF0C5F807F11800FFF7F8FD022808
:106C880004D1284607F11801FFF760FEC7F81C90E9
:106C9800BBF1000F0AD0A8EB0A0104EB0A0015F0BB
:106CA800F7FE2A460146584616F0EAFD002E08BFB0
:106CB8002E46AB4608F1010A08F1010834E700BF87
:106CC800E5205A8067215A8000215A8028215A805D
:106CD800BC0D327E46215A8058665A80980B327E07
:106CE8005B215A8007B5CB216A4616F0C7FA00988F
:106CF800003818BF012003B05DF804FB436A5B8BC2
:106D0800012B1EBF03695B180361704710B5C36A86
:106D18000446806ADB6F9847A38B626A01339BB293
:106D2800A383D18C994238BFD38410BD2DE9F0419B
:106D380007461E4661B111F0030511D14B68D8B260
:106D480090420DD14FEA132801F10804454501DBB3
:106D5800BDE8F08154F8041B3846B0470135F5E723
:106D680038463346BDE8F04118470000024B9D22E3
:106D78008968FFF7DBBF00BFBD8D4C80024B6B22DB
:106D88008968FFF7D3BF00BF45754C8010B5C36A4B
:106D98000446806A0021D3F888309847E36AA06ADD
:106DA8000E215B6B9847E36AA06A0121D3F8CC30C7
:106DB800984720460321BDE81040FFF79FBF38B52C
:106DC800C36A0446806A00229B6C9847E36AA06AFB
:106DD800D3F8C05000231A461946A8472046BDE8F4
:106DE8003840FFF7D3BFC36A00228968806A5B6DA9
:106DF80009091847C36A8968806A1B6C184710B567
:106E0800044608461146226817F002FC636A43608C
:106E180000238360236A0BB9206210BD1A469B6861
:106E2800002BFBD19060F8E72DE9F74F04460D469B
:106E3800174698461BB10B8B43F008030B832F842E
:106E4800626A138B43F030031383636A1B78002B49
:106E580046D1E36A3A46A06A2946D3F8B460434665
:106E6800B44603B0BDE8F04F6047DB6A03EBC60BDE
:106E780013F83630043B012B1DD84FF0000917E0FA
:106E8800EB6A03EBC90213F83930052B0ED1DBF896
:106E980004105368994209D1E36ABBF80220A06A3A
:106EA8000AF1010A5B699C460023E04709F10109E0
:106EB8006B8D4B45E4DC0136636A5A8DB242D4DCF3
:106EC800BAF1000FC5D0E36A5246CDF800802946D2
:106ED800A06AD3F8B8603B46B04703B0BDE8F08F6E
:106EE8000026B246E8E70000F8B5857904460E4664
:106EF800476911461A460023837143610E4BFFF719
:106F080015FFA368BBB9E18A51B1A28A42B9E36A05
:106F1800A06AD3F8A0309847E36AA06A5B6C9847E8
:106F280031462046A38AE28AFFF77EFF6761003D6B
:106F380018BF0125A571F8BDB9834C8070B5437998
:106F48000546012B0C4606D1436A0A465B8B022193
:106F5800FFF755FF2061A268284621694C23BDE848
:106F68007040FFF7C1BF70B5134642790546012A44
:106F78000C4604D10A460721FFF741FFA061A66924
:106F88002846E26846233146FFF7AEFFF08A70BD17
:106F98002DE9F04F054687B00C4600AF11B9012125
:106FA800116015E011F003081BD10B79682B07D18C
:106FB800CB681B0913608C68002CF0D04FF00108D7
:106FC80004F00F03022B0FD12109B8F1000FE7D00D
:106FD800EB6A0022A86A1B6B98471C37BD46BDE8C0
:106FE800F08F4FF00008EBE7A30702D123796C2B51
:106FF80006D0324B40F25E41314A324845F056FFE6
:10700800B8F1000F02D1A3681B091360636800265A
:107018004FEA132904F108039B4609F1FF3AFB6084
:107028004E4526DB4FF0000B0AF1070323F0070358
:10703800ADEB030D6B461E46CB4522DB5146184689
:1070480015F026FDEB6A00221B6B0146A86A9847DB
:10705800B8F1000FC1D001260C344E45BDDA54F802
:10706800041B0022EB6A0136A86A09095B6D984780
:10707800F3E75BF8040B0136000915F0ACFD824418
:10708800CEE7BBF1000F03D04FF02E0206F8012B1C
:107098007B6007F11401FB680BF1010B53F8040B3B
:1070A800FB60000915F0A1FD7A69BA600146304617
:1070B800CEF00CFFBA687B681644BDE78C215A8075
:1070C800262F5A80BD215A8031B1C26801F00303CE
:1070D800134304BF0B68C3607047000010B5838B6F
:1070E80004462BB9094BED21094A0A4845F0DEFE52
:1070F800013B8383C36A806AD3F88430984720466B
:107108000121BDE81040FFF7F9BD00BFDF215A801B
:10711800842D5A80BD215A8038B583680D460446AF
:1071280011464BB905480DF013FE2946A0602046CC
:10713800BDE83840FFF7C8BF38BD00BFDC695A80DA
:10714800014AFFF7E9BF00BFFA215A8070B50B79F1
:107158000446092B4FF6FF730CBF058B458B9D42E8
:1071680002D10B4AFFF7D8FFA28BE38B9A4206D2D3
:10717800084B4FF48261084A084845F097FEE16AD7
:10718800D21AA06A8E6F29463346BDE87040184768
:1071980017225A8037225A80CB2E5A80BD215A8016
:1071A80038B50446A9B101F00F03022B0DD10D0922
:1071B80028460BF0EAFC002806DA07492A46074861
:1071C8000DF060FEA060002038BD054AFFF7A4FF5F
:1071D800F9E70846F8E700BF73225A80CC6A5A805C
:1071E80085225A802DE9F843074691460C469DF8BA
:1071F80020007D6A2A8B12F0020C06D0434A2146F1
:107208003846BDE8F843FFF787BF01F00F010229B0
:1072180014D12109BE793EB3EB8B66460133EB836B
:107228004FF0010800296ED0786A002217F040FA62
:1072380005460378002B52D0354AE0E70CB1A10788
:1072480006D0344B40F65431334A344845F02EFECC
:107258002179264649450BD1A168BB7909091BB19B
:10726800EB8B0133EB83DBE7AB8B0133AB83D7E7E6
:10727800994225D1BE79002EC0D10123BB71A368E4
:10728800002B40D003F00F02022A08D12B8B43F0C9
:1072980004032B83A1684FF003080909C2E79A0782
:1072A80002D11B794B2B04D01D4B40F673311A4A7F
:1072B800CBE72B8B43F004032B83A668B168EAE77E
:1072C800814204D0174B40F67B31134ABDE7A168D1
:1072D80042F002024FF005082A830909A2E780F864
:1072E8000180032303707B6A5B8B032B0BD1B9F1FD
:1072F800480F08D13EB1F1683846FFF751FF6B7867
:1073080043EA00136B70BDE8F88300BFA6225A80D9
:1073180036235A80B5225A80E32E5A80BD215A80DE
:10732800D1225A8008235A80502307B500934E2251
:107338004F23FFF757FF03B05DF804FB4A2307B557
:10734800009348224923FFF74DFF03B05DF804FB83
:1073580010B404466279406A012A0B4602D110BC77
:1073680017F0A6B9E16A0246A06A10BC143103F00E
:1073780011BC10B404460B46426A4079012803D177
:1073880010BC104603F0F7BBE16AA06A10BC1C31C0
:1073980003F000BC10B5436A5A8B0446FFF7E3FDBF
:1073A80001462046BDE81040FFF7E3BF2DE9F34151
:1073B8008D6804460E4605F00F030E2B06D0002DEF
:1073C80038D0A90736D12B79652B1ED10095002519
:1073D800652101AA684614F019FB019B002140F2BF
:1073E800BE5203EB800083421DD1F26840F20E4387
:1073F8009A423FD1636A1F78F7B14B4A314620461B
:1074080002B0BDE8F041FFF787BE622B12D1AB682E
:107418000093ED68002DDBD1444B40F29D41444A76
:10742800444845F043FD53F8047B97420CBF0131B3
:107438000331D8E70021D8E7E36AA06A9B6B984735
:10744800E36AA06A0521DB6B9847E36AA06A3A46BB
:107458000121D3F8A03098472946204601AAFFF712
:1074680097FDE36AA06A022239461B6B984702B06F
:10747800BDE8F081E36A0027A06A9B6B98476A46DB
:107488006A2106F10C0014F0C1FA0646B74213D17E
:10749800E36A0022A06A31460027D3F8A030984753
:1074A8002946204601AAFFF773FDB7421AD1E36ABD
:1074B800A06A1B6E9847DAE7009B53F8273023B180
:1074C8009A0702D11A79672A04D01B4B40F2CC41A3
:1074D800174AA5E799680137E36AA06A0909DB6BCF
:1074E8009847D3E7009B53F8275025B1AB0702D143
:1074F8002B79672B04D0104B40F2D7410C4A8FE709
:10750800A9680122E36AA06A4FEA11181B6B414679
:107518009847E96829B9414620460137FFF729FF0E
:10752800C3E70909F8E700BF74235A804B235A8040
:10753800352F5A80BD215A8091235A8037B5C36AA6
:107548000446806A0D4600219B6B9847E36AA06A4F
:107558000E215B6B98472946204601AAFFF718FDC4
:1075680001992046FFF705FF03B030BD10B404466B
:107578000B46426A4079012803D110BC104603F03B
:10758800FABAE16AA06A10BC243103F003BB000018
:1075980037B504460D46002937D0CA0707D5C36A50
:1075A80049109B6BA06A03B0BDE8304018478B07B1
:1075B80037D001F00F05062D4FEA111309D00A2D17
:1075C8000FD0022D23D1194603B0BDE83040FFF794
:1075D800BFBEC26A1946806AD26B03B0BDE83040AC
:1075E80010474279042A03D0C36A06211B6CD9E7E5
:1075F800184601A915F0F9FAE36A0199A46A1D6C05
:1076080011F02AF901462046A84703B030BD042BE3
:10761800FBD0C26AD9B2806A526B03B0BDE8304071
:107628001047C36A0968806A1B6998472B793A2B07
:1076380006D9064B40F62531054A064845F036FC82
:10764800054A2946204652F82330ACE7CE235A8013
:10765800802E5A80BD215A80A82F5A802DE9F14FDB
:10766800044616460D4631B9784B4FF4F971784AFD
:10767800784845F01BFCA90711D005F00F03022B31
:1076880017D1F2074FEA151104D401B0BDE8F04F45
:10769800FFF76FBE01B0BDE8F04FFFF759BE69684C
:1076A800CBB22D2B00F08D800BD8062B0ED02C2BB7
:1076B80013D0694A2946204601B0BDE8F04FFFF7CC
:1076C8002BBD2E2B00F09D809D2BF2D1002EF0D1EA
:1076D80005F108030A0A0021A6E0022A02D0A968D7
:1076E800FFF756FFD5F80C80B8F1000FE1D018F07D
:1076F8000309DED1D8F804304746DAB28E2A1CD105
:10770800022E4FEA132705D008F1080A07F1FF3BBC
:10771800D94508DB013758F8277067B94F4B40F255
:10772800A5114F4AA4E75AF8041B2046FFF730FF7B
:1077380009F10109ECE7BB07F0D13B79312B1BD1EB
:10774800022E07D1E36AA06A9B6E9847E36A1B6D15
:1077580001210CE0B9682046FFF71AFFE36A012E01
:10776800F5D1DB6DA06A9847E36A00211B6DA06A1A
:1077780001B0BDE8F04F1847322B9AD1BB6803F02F
:107788000F03022B04D0374B40F2B711344A6FE78E
:10779800D4E90A03012E0BD19B6D9847E36AB968B7
:1077A80000225B6DA06A090901B0BDE8F04F1847D7
:1077B800022E01D15B6E9847E36A0122B9685B6DBE
:1077C800F0E7A86800283FF474AF870702D103796F
:1077D800922B04D0244B40F21B211D4A48E7002A73
:1077E8007FF467AFC36863B39A072AD15A68D1B2E6
:1077F80095291ED19B68CBB11C4B4FF41071144ACC
:1078080036E7002A7FF455AFA96829B90B4601B0BD
:10781800BDE8F04F00F02CB8880703D10B79084673
:10782800922BDFD000231A462046F0E71A468168DB
:10783800FAE7962902D10833120AF8E7AC293FF48F
:1078480038AF022200F1080345E700BF00245A8040
:10785800AA2E5A80BD215A806B245A801B245A8034
:10786800972E5A8047245A8086245A80C4245A80E6
:107878002DE9F74F04460E1E90461F4614BF4FF0E1
:1078880001094FF0000924D016F0030521D13379FE
:10789800222B1ED1C36A2946806AD3F8B030984794
:1078A80008F1FF3ACB463B1FBAF1FF3F14D16B1CDE
:1078B80032D1E36A09EB0801A06AD3F8AC309847E3
:1078C800002E32D107EB8808474531D103B0BDE817
:1078D800F08F4FF0FF35E3E753F8041F81B18A07B3
:1078E8000ED10A79222A0BD1019301350DD1E26A12
:1078F8005946A06AD2F8B0505246A847019B5D4647
:107908000BF1010B0AF1FF3ACEE7104A204603B00B
:10791800BDE8F04FFFF700BC002ED3D02DB9B168F9
:107928002A462046FFF79AFECCE700223146F8E7C0
:1079380057F8041BA9454FF00002204609F1010938
:1079480008BF8968FFF78AFEBEE700BFEA245A80AD
:107958002DE9F74F04460D4616461F46284613F0F4
:1079680005FE20B1CEB9E36A3946DB6E4CE0284605
:1079780013F00AFE08B186B1F5E7002D60D0A9071B
:107988005ED16B684FEA132BDBB21E2B1BD1F6B10D
:10799800083505EB8B0BAB450DD103B0BDE8F08F77
:1079A8005AF8041B4346204609F101090192FFF7E2
:1079B800CFFF019A19E055F8041B3B463246204692
:1079C800FFF7C6FFE7E71F2B23D1002EE0D0D4F83E
:1079D800108005F1080A4FF0000986F0010208F14D
:1079E800010323610BF1FF330093009B4B45D7DC68
:1079F8003B460BF101013246204655F82110FFF7AE
:107A0800A7FFE36A4146DB6AA06A03B0BDE8F04F0E
:107A18001847202B03D1AD6886F001069EE72D2B71
:107A28000ED1AB68002B9DD09A0702D11B79922BFF
:107A3800A1D00A4B40F28511094A0A4845F036FAA6
:107A480029462046FFF7A4FDE36AA06A3A46314674
:107A58001B6F03B0BDE8F04F184700BF86245A805B
:107A68008D2E5A80BD215A802DE9F04707691E46A0
:107A780004460D463946BB1C904607F101090361CF
:107A8800C36A806ADB6A9847E36AA06A4946D3F802
:107A98008C309847A96800222046FFF7DFFD2D6942
:107AA800002D2DD141462046FFF772FD636A1978F3
:107AB800E06A06291DD1D0F8CC302946A06A98473B
:107AC80020460121FFF71AF9E36AA06A1B6E98475E
:107AD800E36A3946A06ADB6E9847E36AA06A4946BA
:107AE800DB6A9847E36AA06ABDE8F047D3F89030AC
:107AF8001847D0F8A850B200A06A0532A847E7E7AF
:107B08002B79AD2B07D1A9683B4600222046FFF709
:107B18001FFFED68C4E7AC2B06D00C4B40F6B7311D
:107B28000B4A0C4845F0C2F9E9682046FFF730FDDA
:107B3800E36AA06A0121D3F888309847424629466B
:107B4800731C2046FFF790FFC2E700BF04255A8048
:107B5800B32E5A80BD215A802DE9F041C36A0E46E2
:107B68000025044642711146056132464662806A24
:107B78001B68984706212046FFF7C0F86379012B58
:107B8800337808BF7562F568ADB1A90713D12A79B2
:107B98003F2A10D133B1874B40F60141864A8748C6
:107BA80045F084F9A968FFF7F3FCE36AA06AD3F803
:107BB800C43098473CE04BB929462046FFF7E8FC1B
:107BC800E36A0E21A06A5B6B9847EEE7072B05F086
:107BD80003073AD105B127B1794B40F60D41764AF2
:107BE800DDE72B79032B04D0764B40F60F41724A20
:107BF800D5E76379012B11D1734B4622A771204633
:107C0800E968FFF793F8738B032B07D1296920469E
:107C1800FFF7C6FA338B43EA80133383696920463A
:107C2800FFF7B6FCE36AA06A9B6898470028C7D0AC
:107C3800E36AA06A5B689847A38B002B00F00B816E
:107C4800624B40F691415C4AA9E7022B2AD105B163
:107C580027B15B4B40F62641574AA0E76B681B0AE1
:107C6800032B04D05A4B40F62841534A97E7E36A5E
:107C78002968A06A1B6998476379012B06D1A77107
:107C88004C22544B2046A968FFF750F8E968204673
:107C9800FFF77EFC338BDA0787D5E36AA06A1B6E91
:107CA80098478DE7DA1E032A6DD805B127B1444BF2
:107CB80040F63F41404A72E76B681B0A022B04D02A
:107CC800454B40F641413C4A69E7EF6827B1BB079D
:107CD80002D13B79AC2B04D0404B40F64241364AA6
:107CE8005DE794F80580B8F1010F06D1606A0322B8
:107CF800414616F0DDFCA6F81C80E36A2968A06AF4
:107D08001B6998473378032B24D1E36A0122D3F8FF
:107D1800A030A06A002198473378062B28D1E36A5F
:107D2800A06A5B6C984701212046FFF711FBE36AC4
:107D3800A06A5B6C9847E36AA06A5B6C984700236B
:107D48003946AA682046FFF78FFE3378062B7FF462
:107D58002CAF35E7042B04D1E36A0222D3F8A03014
:107D6800D7E7052BD8D1E36A0322D3F8A030D0E7B0
:107D780020460121FFF7ECFAE36AA06A0121D3F853
:107D880088309847DBE7012B04D0154B4FF4476147
:107D9800094A04E705B127B1094B40F67141064A83
:107DA800FDE62B79382B1FD00E4B40F67341024A63
:107DB800F5E600BF50255A80032F5A80BD215A800E
:107DC8006C255A808F255A8045734C809B265A8093
:107DD800BC255A8031734C80E5255A800E265A807E
:107DE80047265A8062265A806379012B04D10322E0
:107DF8000A21304616F05CFC17212046FFF7A8FA46
:107E080016212046FFF7B5FAA968E36AA06A0909AE
:107E1800DB6B98471A212046FFF7ABFA2969204601
:107E2800FFF7B6FB0A21304616F032FC024620B9AD
:107E38000A4B40F685410A4AB1E61178D4E90A03AB
:107E4800032902D15B6B0E21BEE65D690A2100237E
:107E58005288A847A9E6BDE8F08100BF90265A805D
:107E6800032F5A8038B5426A12780446072A0B460F
:107E780006D0022A04D0BDE83840144AFFF74CB9AE
:107E88009D6885B9E36A0E21A06A5B6B9847E36A2F
:107E98000021A06AD3F8CC30984720460121BDE8DC
:107EA8003840FEF72BBFAB070BD12B79AF2B08D18E
:107EB800A9682046FFF76CFB2046BDE83840FEF76E
:107EC80065BF29462046FFF763FBE0E7B7265A80DF
:107ED80001F00F03022B70B504460D46164602D07A
:107EE8000C4AFFF719F931462046FFF751FBE36AC0
:107EF800A06A9B6D9847666A3378033B032B20463C
:107F08004FEA15119CBF73686362FFF732FA666225
:107F180070BD00BF6B245A80D1E90212FFF7D8BFA9
:107F280070B54B68044616461B0A022B06D01D4B3B
:107F380040F699111C4A1D4844F0B8FFCD6825B198
:107F4800AB0702D12B79AC2B04D0194B40F69A1110
:107F5800154AF0E74379012B06D1436A0A465B8B41
:107F68003146FEF74CFF68610023204669691A46CE
:107F7800FEF75AFFE9682046FFF70AFB062E05D1EF
:107F8800E36A0021A06AD3F888309847E36A0121A0
:107F9800A06AD3F8BC500023AC461A46BDE870402E
:107FA800604700BFE5255A806A2E5A80BD215A8055
:107FB8000E265A8038B50C460546C968FFF7E8FA18
:107FC8002846A168BDE83840FFF7E2BA70B50B79DA
:107FD8000446342B0D460DD18968FFF7D9FAED68B0
:107FE8000DB1A8070BD02C4B40F675212B4A2C4815
:107FF80044F05CFFC36A0E21806A5B6B98472B795B
:10800800352B04D0274B40F67C21244AEFE7AD6896
:1080180055B9E36A0E21A06A5B6B9847E36A0422AC
:108028000221D3F8A03014E0A9072FD12B799A2B7D
:1080380013D1E36A0E21A06A5B6B9847A9680029EF
:10804800ECD02046FFF7A4FAE36A04220321D3F810
:10805800A030A06ABDE8704018479B2B16D1A968CC
:108068002046FFF795FAEB680BB19A0704D00A4B44
:1080780040F69121094ABAE71A799C2A04D00A4B9A
:1080880040F69321054AB2E79968D8E72946204681
:10809800FFF77EFAC2E700BFD0265A80582E5A80D2
:1080A800BD215A80F7265A8028275A8010B589683A
:1080B8000446FFF76DFA0021E36AA06ABDE81040A4
:1080C8001B6D18472DE9F04106460C46154611B1BF
:1080D800FFF75EFA01243DB16F684FF000080835DC
:1080E8003F0AB84509DB3C44F36A2146B06A0022DE
:1080F800BDE8F041D3F8A030184755F8041B3046C6
:10810800FFF746FA08F10108EBE7000010B58968A7
:10811800034621B90A46BDE81040FFF7D3BF8A07D6
:1081280002D10A79922A06D0144B40F6B611144AA5
:10813800144844F0BBFECA6822B9134B40F6B81184
:108148000F4AF5E7940714D11479952C06D1926853
:1081580032B10E4B40F6BD11094AE9E7962C01D120
:108168008968D8E7AC2C04D1BDE810400622FFF797
:10817800D7BE0A4618460021CDE700BF86245A809C
:108188000B2E5A80BD215A8055275A80C4245A8004
:108198000A460021FFF796BFF8B50C4605464F681A
:1081A8000C3489680026FFF7F3F93F0A0236B74214
:1081B80004F1080400DCF8BD54F8041C2846FFF755
:1081C800E7F954F8081CEB6AA86A0909D3F89C3047
:1081D8002339C9B29847E9E72DE9F0410C4605462D
:1081E8004E680C3489680127FFF7D2F9A6F10D080B
:1081F800360A5FFA88F8B74201DBBDE8F08154F827
:10820800041B2846FFF7C4F9EB6AA86A4146013700
:10821800D3F89C309847EEE72DE9F0410D46044627
:108228004E6801278968FFF7B3F9360A032E91BF14
:108238004FF00008D4F8108008F1010323617B1C7B
:10824800B34222DB032E6EDD2569A06A29466B1C2A
:108258002361E36ADB6E9847E36AA06A4146DB6AFA
:108268009847E36AA06A0121DB689847E36AA06A35
:108278005B6E9847E36AA06A1B6E9847E36AA06A38
:108288002946BDE8F041DB6A1847296920460237CC
:10829800FFF77EF9B74207DAE36AA06A9B6D984751
:1082A800E36AA06A9B6E9847E96801F00F030E2BFA
:1082B80016D1E36AC1F3071124290CBF062133390B
:1082C800D3F89C3018BFC9B2A06A9847B74205DAFC
:1082D800E36A4246A06A00215B6F98470835AEE71B
:1082E80009B18B0706D0114B40F69101104A11488D
:1082F80044F0DCFD0B79852B04D1E36A3221D3F8F5
:108308009C30E1E7862B04D00B4B40F69701084AD6
:10831800EDE7E36A8A68A06AD3F89C300AB90721B6
:10832800D3E73321D1E7BDE8F08100BF7B275A802E
:10833800E72D5A80BD215A80A2275A8010B5896836
:108348000446FFF725F90321E36AA06ABDE8104057
:10835800D3F8983018472DE9F04791F80490D0F8F1
:108368001080A9F11E030446D3F1000949EB030963
:1083780008F10103002701F1080503614E68360A78
:10838800B74206DBE36A4146A06ABDE8F047DB6A0C
:10839800184755F8041B20460137FFF7F9F8B7428C
:1083A800F0DAE36A4246A06A49465B6F9847E7E716
:1083B80001F00F03022B70B504461AD009B18B07E0
:1083C80006D0304B40F28D212F4A304844F06EFDE4
:1083D8000B79492B01D04F2B02D10123A37170BD1A
:1083E8004A2BFCD0502BFAD0482B0ED18E680D6941
:1083F800ADB9A379002BF2D1E38A002BEFD0244A40
:108408002046BDE87040FEF787BE4E2B04D0214BB6
:1084180040F2B2211C4AD8E7D1E90265E8E7A3791E
:108428003BB3A38A01339BB2012BA3820ED1D4E9BB
:108438000A03E18AD1B1D3F8A03000229847E36A51
:108448000222A06A0021D3F8A03098472946204686
:10845800FFF79EF8E36AA06A3109DB6B9847E36A85
:10846800A06ABDE87040D3F8A43018475B6C984701
:10847800E5E7E38A294620460133E382BDE87040F8
:10848800FFF786B8B5225A80C92D5A80BD215A8077
:10849800D7275A80B8275A802DE9F041CD6804467D
:1084A8000F462DB115F0030202D12B79812B06D08E
:1084B800174B40F63501174A174844F0F7FC066990
:1084C800B31C06F1010803613346A968FFF740FAB7
:1084D800B9682046FFF75CF8E36AA06A4146DB6E9C
:1084E8009847E36AA06A3146DB6A9847E36AA06A5C
:1084F8004FF0FF31DB689847E9682046FFF748F8F6
:10850800E36AA06A4146BDE8F041DB6A184700BF4C
:1085180005285A80B42D5A80BD215A802DE9F0478C
:108528000446904699460F4621B9BDE8F0471946DA
:10853800FFF72EB80669731C036115683DB315F083
:10854800030A24D12B797B2B21D1A968FFF720F8C6
:10855800524631462046FEF7D9FBE9685246204686
:10856800FFF77CF84B4608F104022046791EFFF716
:10857800D5FFE36AA06A3146D3F880309847204691
:108588000321FEF7BBFBBDE8F047FEF7A7BD294670
:108598002046FEF7FDFF204600223146FEF7B6FBD7
:1085A800E36AA06A1B6E9847DCE700002DE9F04FEC
:1085B800056985B01E4604460F4629460E9B05F1FF
:1085C800010B0293AB1C0192012203614FF00008DA
:1085D800FEF79CFB39462046FEF7DAFFE36A0022E5
:1085E8005946A06AD3F894309847E36AA06A2946A6
:1085F800DB6A9847E36AA06AD3F8D0309847D4F882
:108608001090009609F101032361019B984518DB3E
:108618002046FEF763FDE36AA06AD3F8D430984792
:10862800E36AA06A5946DB6A984702992046FEF732
:10863800AFFFE36AA06A4946DB6A05B0BDE8F04FC0
:108648001847009B1A4652F8046B00922EB116F098
:10865800030702D13279752A06D0424B40F25161A4
:10866800414A424844F022FCD4F810A008F101081D
:108678000AF101022261B168002943D1019A4245F9
:1086880035D1E36A0025A06A1B6E9847F168204639
:10869800FEF77EFFCDB1E36A0E21A06A5B6B9847B7
:1086A800E36AA06A3946DB6A9847E36AA06A0E2142
:1086B8005B6B984729462046FEF75BFE2046294615
:1086C800FEF754FF2046FEF709FDE36A0122A06A7F
:1086D8004946D3F894309847E36AA06A5146DB6A62
:1086E8009847E36AA06A0121DB6898478DE7204A2A
:1086F80020461968FEF710FD204605B0BDE8F04F8A
:10870800FEF7ECBC11F003052AD10A790B46762A4C
:1087180002D1DD6889682D09E36AA06A03919B6D1F
:10872800984703992046FEF733FFE36AA06A0821B9
:10873800D3F89C309847E36AA06A524600211B6F21
:108748009847002D9DD029462046FEF712FE27693E
:108758000222394620467B1C2361FEF7D7FA95E7AB
:108768003D46D9E742285A804C2D5A80BD215A806F
:1087780082285A802DE9F3470769984616460D4620
:1087880002227B1C394604460361DDE90A9AFEF79A
:10879800BDFA002E2CD1B9F1000F06D0194B40F2CA
:1087A800A461194A194844F081FBE36A0321A06ACD
:1087B800DB68984729462046FEF7EAFEE36AA06A86
:1087C8006FF00201DB689847E36A0E21A06A5B6BD1
:1087D8009847E36AA06A3946DB6A984720465146BB
:1087E800FEF7D6FE204602B0BDE8F047FEF776BC9D
:1087F8004346324629462046CDF80090FFF7D6FE7C
:10880800E2E700BFA0285A805F2D5A80BD215A8018
:10881800F0B5CC6885B006460D4614B114F00307D0
:1088280006D01B4B40F2B3611A4A1B4844F03EFB8A
:108838002379782B09D1A3683A46CDE900733B46E2
:108848008968FFF797FF05B0F0BD742B4FF07701EB
:1088580003AA16D104F1080013F0D8F823690246D8
:108868003BB9E3680093039B3046A968FFF79EFE77
:10887800E9E79B6830460193E3680093A968039B86
:10888800DFE705F10C0013F0C1F800970246EAE7AC
:10889800D0265A80732D5A80BD215A802DE9F04781
:1088A800B0F81E9006690446D0F818A00D46B31C0F
:1088B800068306F101080361838BA0F81A80C3833D
:1088C800886812F053FEF8B927697B1C2361A868F1
:1088D80012F05AFE20B9E36A4146A06ADB6E984757
:1088E800E36A3946A06ADB6A9847E9682046FEF7DA
:1088F8004FFEE36AA06A4146DB6A9847A9683B468F
:1089080001222046FFF724F8C4F818A02046A4F84E
:108918001E902969FEF73CFEE36AA06A3146BDE86D
:10892800F047DB6A18472DE9F74F04461746984683
:108938000E4629B9194603B0BDE8F04FFEF728BE28
:1089480005692B1D05F1010A036105F1020B136886
:1089580005F10309002B00F0F08013F0030240F04A
:10896800EC8019797B2940F0E8809968019200939E
:10897800FEF70EFEE16AA06A896D8847AA212046A3
:10898800FEF71DFADDE900322046D968FEF766FEDB
:10899800022229462046FEF7B9F9E36AA06A0321B4
:1089A800DB68984743463A1D2046711EFFF7BBFF18
:1089B800E36AA06A6FF00201DB689847E36AA06A7D
:1089C8000E215B6B9847E36AA06A5B6E9847E36A7F
:1089D800A06A5146DB6E9847E36AA06A2946DB6ABB
:1089E8009847E36AA06A9B6D9847E36AA06A0122E8
:1089F80021219B699847E36AA06A0821D3F89C3033
:108A08009847E36A5A460021A06A1B6F9847E36AB1
:108A1800A06A9B6D9847E36AA06A9B6E9847E36AD1
:108A2800A06A5B6E9847E36A0022AB21A06A9B6C40
:108A38009847E36AA06A9B6E9847E36AA06A9B6EB0
:108A48009847E36AA06A9B6D9847E36A00220A2167
:108A5800A06A5B6D9847E36AA06A5B6E9847E36A11
:108A6800A06A0E215B6B9847E36AA06A0321D3F8DA
:108A7800C05000231A46A8472046FEF787F9E36A44
:108A88004A460021A06A1B6F9847E36AA06A1B6EDA
:108A98009847E36AA06A0E215B6B9847E36AA06A6D
:108AA8004946DB6E9847E36AA06A0221DB6898476B
:108AB800E36AA06A5946DB6A9847E36AA06A9B6E34
:108AC8009847E36AA06A9B6E9847E36AA06A514692
:108AD800DB6A9847E36A0022AB21A06A9B6C98473F
:108AE800E36AA06A0E215B6B9847E36AA06A9B6DF4
:108AF8009847E36AA06A9B6D9847E36AA06A0321D6
:108B0800D3F8C05000231A46A8472046FEF73EF97E
:108B1800E36AA06A1B6E9847E36AA06A4FF0FF31C8
:108B2800DB689847E36AA06A4946DB6A98472046AB
:108B380003B0BDE8F04FFEF7D1BA19462046FEF75C
:108B480027FDE36AA06A9B6D98472046AA21FEF795
:108B580036F9E36AA06A1B6E984719E72DE9F04FCA
:108B68008D6887B0044615B115F0030606D0724B20
:108B780040F2AF71714A724844F098F92B79032B8F
:108B88000AD12946FEF706FCAA69138B43F00103B4
:108B9800138307B0BDE8F08F162B40F0B280EB6866
:108BA80007694FEA13193B1D07F1010B036107F130
:108BB800020AE968FEF7ECFCE36AA06A3246AC21D7
:108BC8009B6C9847E36A32463146A06AD3F8C08066
:108BD8003346C04749462046FEF7CBFBD4F8108001
:108BE800A369019308F10202E38B02932261A28B2D
:108BF800E28308F10103E26A19466383A06AA4F8D4
:108C08001880D26A03939047012259462046FEF7FE
:108C18007DF849462046FEF79BFB2046AE21FEF72D
:108C2800CEF8A96832462046FEF718FDE26AA06A27
:108C38005146D2F894903246C847E26AA06A59462B
:108C4800D26A9047E26AA06AD2F8D0209047E26AD6
:108C5800A06A926D9047E26AA06A40F2D931D2F8D0
:108C680018900122C847E26AA06A0821D2F89C201D
:108C78009047E26AA06A3146D2F87090FA1CC84759
:108C8800E26AA06A126E9047E26AA06A3946D2F890
:108C980094600122B047E26AA06AF91CD26A904740
:108CA800E26AA06A0121D26890472046FEF716FAC8
:108CB800E26AA06AD2F8D4209047E26AA06A5146D4
:108CC800D26A904729692046FEF762FCE26A039B54
:108CD800A06A1946D26E9047019BA3613946029B50
:108CE800E383E36AA06ADB6A984769692046FEF76E
:108CF8004FFCE36AA06A4146DB6A07B0BDE8F04F63
:108D08001847182B04D00F4B40F2BB710B4A32E7BF
:108D18007A2105AA05F1080012F078FE014620B96B
:108D2800094B4FF4F561094A25E7EB682046059A97
:108D3800FFF7F9FD2DE700BFBF285A80612F5A8041
:108D4800BD215A80E6285A8016295A80492F5A8010
:108D580070B58D6804463DB9C36A2946D3F8C83052
:108D6800A06ABDE870401847AB070ED12B795E2B7F
:108D78000BD1A968FEF70CFCE9682046FEF708FC51
:108D8800E36A0221D3F8C830EAE729462046FEF70D
:108D9800FFFBE36A0121D3F8C830E1E710B5896821
:108DA8000446FEF7F5FBE36AA06ABDE810401B6EB7
:108DB800184700002DE9F04705460C4604F00F035C
:108DC800022B05D128462109BDE8F047FEF7CEBBA6
:108DD800002C00F08F80A00740F08C8023792C2B8A
:108DE8004CD1A1682846FEF7D3FBE668002E00F0B8
:108DF800818016F003087DD177683346FAB28E2A4F
:108E08001BD13F0A06F1080907F1FF3AC2450CDCFD
:108E1800013756F827300BB199070ED0394B4FF46C
:108E28007171394A394844F041F859F8041B284609
:108E3800FEF7AEFB08F10108E8E71A79312A0AD1F2
:108E480099682846FEF7A4FBEB6AA86A0221BDE8E8
:108E5800F0471B6D1847322A4CD1996801F00F0270
:108E6800022A04D02A4B40F2CB31274ADAE7EB6AD0
:108E78000909A86ABDE8F0475B6D18472D2B39D161
:108E8800A468002C36D0A20702D12379922B04D0F3
:108E9800204B40F2D9311C4AC4E7E66826B3B30731
:108EA80022D17768FAB2952A08D1B36823B11A4B50
:108EB80040F2E131144AB5E7A4687FE7962A11D158
:108EC800A1682846FFF776FF3F0A00240836BC420F
:108ED80001DBBDE8F08756F8041B2846FFF76AFF58
:108EE8000134F4E7AC2A05D0A1682846FFF762FFF1
:108EF800E46863E721462846084ABDE8F047FEF7DC
:108F08000BB900BF1B245A801E2E5A80BD215A80DF
:108F180047245A801C295A804F295A8075295A801B
:108F28002DE9F041CD6804460E4625BB0379BBB157
:108F3800436A1D78A5B9CF21FEF70AFAB168204621
:108F4800FEF726FBE36AA06A2A460121D3F8BC6033
:108F58002B46B047E36AA06ABDE8F0411B6E18478C
:108F6800B1688A0770D001F00F03022B71D1204637
:108F7800FEF70EFBEEE7AB0760D16B68DAB25B2A4F
:108F880011D1ED68002D59D1406A0378072B60D1C3
:108F9800896801F00F03022B5BD1BDE8F041032281
:108FA800090915F085BB562A22D189680122FEF7E6
:108FB80055FBE9682046FEF7EBFAA96801F00F03B4
:108FC8000E2B06D0244B40F2EB71244A244843F080
:108FD8006DFFE36A0909A06A3D39D3F89C30C9B22C
:108FE80098470222B1682046BDE8F041FEF736BB3B
:108FF800572A23D11B0A5F1E013355F82310FEF7A9
:10900800C7FA002F03DDE36AA06A9B6D9847B16831
:10901800002220460835FEF721FB0026BE4218DA5A
:109028000136BE4203DAE36AA06A9B6D984755F899
:10903800041B00222046FEF711FBEFE729462046D5
:10904800FEF7A6FA0022CDE7002990D00B793A2B3B
:109058008DD1BDE8F08100BF8D295A803A2D5A8004
:10906800BD215A802DE9F0414B6805460E4601F1B5
:10907800080800241F0ABC4201DBBDE8F08158F84B
:10908800041B2846FEF784FAAB683BB12846023435
:1090980056F82410BDE8F041FEF716B80134EAE7A7
:1090A80010B50446FFF7DEFF2221E36AA06ABDE897
:1090B8001040D3F89C30184770B58D68044645B900
:1090C800C36A01222946D3F8A030A06ABDE87040DF
:1090D8001847AA0742D12B79922B3FD1EE687EB36D
:1090E800B3072DD13379952B11D1B36833B11D4B0B
:1090F80040F6DB111C4A1D4843F0D8FEA968FEF76C
:1091080047FAE36A01221146D3F8A030DDE7962B2F
:109118000ED1A968FEF73CFA31462046FFF7A2FFB8
:109128007168E36A0122090AD3F8A0301144CCE738
:10913800AC2B05D129460322BDE87040FEF7F0BEEE
:10914800A9682046FEF724FAE9682046FEF720FAC7
:10915800E36A01220221D3F8A030B6E72946204667
:10916800CDE700BFB4295A80292E5A80BD215A80E4
:109178002DE9F04F044687B01E4603A8CDE9022129
:1091880005AAA4214FF0000B12F040FCD946DA469C
:109198005F46D8460190019B9B451AD16FB1BAF141
:1091A800000F72D1E36AA06A5B6C9847B9F1000FAF
:1091B80071D1E36AA06A5B6C9847029AD4E90A0302
:1091C800002A6ED0D3F8C0403B4642463146A047FD
:1091D80010E0059A52F82B50002D49D0A80747D126
:1091E8002A79A62A0FD1F90707D52F4A29462046FA
:1091F800FDF792FF07B0BDE8F08FAA4647F00107D8
:109208000BF1010BC7E7A72A07D1BA0701D5274AEF
:10921800ECE7A94647F00207F2E7A82A28D1EA684E
:109228006AB193070BD11179AA2906D19268204611
:10923800A968FEF74DFE0136E2E7AC2912D0A9680D
:1092480001F00F02022A01D0194ACFE7E26A0909A0
:10925800A06A08F10108D26B9047E9682046FEF73A
:1092680097F9CDE7062229462046FEF759FEE2E7A0
:109278000FB1104ABAE7B8F1000F01D00E4AB5E7AE
:1092880029462046FEF784F9D5E7DAF80810204683
:10929800FEF77EF98AE7D9F808102046FEF778F934
:1092A8008BE7D3F8BC408FE7DA295A80F1295A8036
:1092B800092A5A802A2A5A80452A5A8070B50D46AA
:1092C800417904460129134603D12A46FDF797FD43
:1092D8006861E36AA06ADB6C98476E6900233146CF
:1092E8001A462046FDF7A0FDE36AF18AA06ADB6B07
:1092F8009847E96829B18B0703D10B79A32B08BFDD
:109308000021204602230022FFF732FFF08A70BDB9
:1093180010B5436A5A8B0446FFF7D0FF0146204632
:10932800BDE81040FEF725B8896800231A46FFF704
:109338001FBF00002DE9F8430D4604468968FEF773
:1093480027F9EE68002E58D07768FBB28E2B1CBF29
:10935800012705F10C06636A04BF3F0A08361B782B
:10936800072B4CD1AB6803F00F02022A47D11B0927
:109378009A2B44D133681A79302A40D19B68002B44
:109388003DD10A212046FDF7E3FF626AD36A528D78
:1093980032B9316820462F4ABDE8F843FDF7BCBE14
:1093A8005978C9070FD559682046FDF7D1FFE36AF8
:1093B800022F0BD8D3F8BC500023A06A1A4602210A
:1093C800A847012517E0013A0833E1E772681179E7
:1093D8003229EFD1B56829793029EBD1916801227A
:1093E8009B6CA06A09099847A968002301222046B6
:1093F8000325FFF7BDFEAF4203D8BDE8F88300257B
:10940800F9E756F8251005F10108B8454FEA850334
:109418001AD20A79322A17D13344D3F8049099F82A
:109428000430302B10D189680022E36AA06A090948
:109438009B6C9847D9F80810002301222046FFF7B3
:1094480097FE08F10105D6E72046A846FEF7A0F8E2
:10945800F7E700BF672A5A8010B5426A12780446B7
:10946800072A0B4606D0022A04D0BDE81040064A57
:10947800FDF752BE20461946FFF75CFF2046BDE8BF
:109488001040FDF783BC00BF7F2A5A802DE9F04FBA
:109498008B6889B004460E4603F00F03022B40F098
:1094A8000881CB68002B00F004819D0740F0018102
:1094B8001A792C2A40F0FD809A6802F00F010229DF
:1094C80040F0F78012097C2A40F0F380DB681A79B3
:1094D800302A40F0EE809B6807AAA42106A80693CC
:1094E80012F094FA431E022B00F2E3800799012838
:1094F8000A6800F08480D1F80490022800F02D81D9
:109508008D68E80740F1D5806B0800F0D28032B151
:10951800910704D11179A639022940F2CA80B9F11C
:10952800000F08D019F0030F05D199F80410A639D7
:10953800022940F2BE80B368A18B776919F001084F
:109548000193336926690293A36906F1020A049319
:10955800E38BE18306F10401039306F101032683FB
:1095680006F1030B05936383216105D14946204623
:109578000592FEF70DF8059A11462046FEF708F801
:10958800E26AA06A5946D26E9047E26AA06A5146DA
:10959800D26A9047E26AA06A926D904700220199C8
:1095A8002046FEF75BF802992046FDF7F1FFE26AD4
:1095B800A06A711CD26A904729462046FDF7E8FF49
:1095C800E26AA06A0E21D2F89C209047E26AA06A5B
:1095D8005946D26A9047E26AB8F1000F13D1D36DA9
:1095E800A06A9847E36AA06A5B6E9847EB0712D4B3
:1095F8005B4B40F2C4515B4A5B4843F057FC9146D1
:10960800032502468BE7A06A926D9047494620469B
:10961800FDF7BEFFEAE7E36A002DACBF0021012198
:10962800A06AD3F89C309847E36AA06A52460121A1
:109638001B6F9847049BA361039BE383002F36D0DD
:10964800E36AA06A1B6E9847B8F1000F03D1E36A7A
:10965800A06A1B6E984739462046FDF799FF256991
:10966800A06A29466B1C2361E36ADB6E9847E36AAC
:10967800A06A88F001010131DB689847E36A314646
:10968800A06ADB6A9847E36AA06A1B6E9847B8F13C
:10969800000F03D1E36AA06A1B6E984727B1E36AFB
:1096A8002946A06ADB6A984709B0BDE8F08F3D46B5
:1096B800E4E72569A38BB4F81E90E383D4F818A0D7
:1096C8006F1C20466FEA4543678305F102086FEA7D
:1096D80053432383EB1C2361F168FDF759FFE36AC9
:1096E800A06A0121D3F888309847E36AA06A39460E
:1096F800DB6A9847E36AA06A4146D3F88C309847FA
:10970800B16800222046FDF7A9FF31692046FDF720
:109718003FFFE36AA06A9B68984720B9E36A394625
:10972800A06ADB6E9847E36A4146A06ADB6A9847FD
:10973800E36AA06AD3F890309847C4F818A0A4F850
:109748001E9020467169FDF723FFE36AA06A294647
:10975800DB6A09B0BDE8F04F18470325D7E600BF1C
:10976800982A5A80842F5A80BD215A802DE9F347C0
:10977800076904460D467B1C0361886811F0F6FEF4
:10978800024610BB26692046731C23613346A9682C
:10979800FEF7DEF8E9682046FDF7FAFEA86811F042
:1097A800F3FE08BB2B690BB96B694BB1E36AA06A7E
:1097B8009B68984720B9E36A3946A06ADB6E9847E8
:1097C800E36A3146A06ADB6A9847712101AA4FF023
:1097D800000805F1100012F019F98146C8450BD1AF
:1097E80069692046FDF7D4FEE36A3946A06ADB6A58
:1097F800984702B0BDE8F087019B53F8286026B16E
:10980800B30702D13379722B06D0184B4FF4A961F4
:10981800174A184843F04AFBB06811F0A7FE024601
:1098280008BBD4F810A020460AF10103236153466F
:10983800B168FEF78DF8F1682046FDF7A9FEB0681B
:1098480011F0A2FE0028CFD1E36AA06A9B6898476E
:1098580020B9E36A3946A06ADB6E9847E36A514645
:10986800A06ADB6A984708F10108B7E7BC2A5A8062
:10987800742F5A80BD215A802DE9F04F044685B0D7
:10988800002602AA01914221019BB246DFF850B19D
:1098980003F1080012F0BAF8636A5D8B0090009B30
:1098A8009E420AD1019BD9680B79032B5FD12A46C6
:1098B8002046FDF758FB05466FE0029B53F82670DB
:1098C80027B1BA0702D13B79412B06D0454B40F26C
:1098D8007631454A454843F0E9FA6C2103AA07F175
:1098E800080012F093F8039B19680A09732A804646
:1098F8000CD020464FF00109FDF74AFEC14521D39F
:10990800F96859B12046FDF743FE07E0022807D061
:109918005A462046FDF700FC0AF1010A0136BEE767
:1099280059680B09412B09D040F65612934207D0CB
:1099380040F6D4429342EBD10325EDE70125EBE74E
:109948000546E9E7039B53F8291001F00F03022BA2
:1099580004D0274B4FF46271234ABBE7E36A002225
:10996800A06A090909F101095B6D9847C6E7442B0C
:1099780020D18E680EB1B30704D01E4B40F29B3144
:10998800194AA7E72A4631462046FDF7ECFAB2699C
:10999800138B43F0010313830546009B0026A3EBBA
:1099A8000A0AB24512D829462046FDF7E2FC05B05E
:1099B800BDE8F08F382B04D00F4B40F2A2310A4A91
:1099C80088E72A462046FFF779FC74E7E36A012115
:1099D800A06A0136D3F8BC7000231A46B847E0E7FE
:1099E8002B2B5A80F62A5A80282D5A80BD215A805E
:1099F800492B5A806C2B5A80982B5A8070B50D468B
:109A08000446C968FDF7C4FDA968C1F307113229E6
:109A18000AD03E39C9B2012907D9074B4FF40D6165
:109A2800064A074843F042FA0221E36AA06ABDE801
:109A38007040D3F898301847CB2B5A80FA2D5A80AB
:109A4800BD215A80184B2DE9F041D3F85C760446C5
:109A58000D463FBB06690122731C036133468968C2
:109A6800FDF776FFE36A1F210122A06A9B699847E8
:109A7800E96851B12046FDF78BFDE36AA06A3A46D2
:109A88000121D3F8BC503B46A847E36A0121A06AEC
:109A9800D3F8C8309847E36AA06A3146BDE8F04178
:109AA800DB6A1847BDE8F081340A327E10B5426A95
:109AB80012780446072A04D0BDE81040094AFDF789
:109AC8002BBB896859B9C36A0E21806A5B6B9847BA
:109AD800E36AA06ABDE81040D3F8C4301847FDF720
